:100000000C9462000C948A000C948A000C948A0070
:100010000C948A000C948A000C948A000C948A0038
:100020000C948A000C948A000C948A000C948A0028
:100030000C948A000C948A000C948A000C948A0018
:100040000C94A0020C948A000C946E020C9448024A
:100050000C948A000C948A000C948A000C948A00F8
:100060000C948A000C948A000000000024002700F1
:100070002A0000000000250028002B0000000008D6
:10008000000201000003040700000000000000005F
:1000900000000000230026002900040404040404D6
:1000A0000404020202020202030303030303010227
:1000B00004081020408001020408102001020408F6
:1000C0001020B90411241FBECFEFD8E0DEBFCDBF92
:1000D00011E0A0E0B1E0EEE5FAE002C005900D927B
:1000E000A433B107D9F721E0A4E3B1E001C01D9228
:1000F000AA3DB207E1F710E0C2E6D0E004C02197C4
:10010000FE010E942705C136D107C9F70E942F03BF
:100110000C942D050C940000AF92BF92CF92DF9209
:10012000EF92FF920F931F93CF93DF936C017B01AC
:100130008B01040F151FEB015E01AE18BF08C0173D
:10014000D10759F06991D601ED91FC910190F081B0
:10015000E02DC6010995892B79F7C501DF91CF9173
:100160001F910F91FF90EF90DF90CF90BF90AF90D5
:100170000895FC01538D448D252F30E0842F90E0AD
:10018000821B930B541710F0CF9608950197089592
:10019000FC01918D828D981761F0A28DAE0FBF2F5B
:1001A000B11D5D968C91928D9F5F9F73928F90E0B1
:1001B00008958FEF9FEF0895FC01918D828D981720
:1001C00031F0828DE80FF11D858D90E008958FEF5D
:1001D0009FEF0895FC01918D228D892F90E0805C26
:1001E0009F4F821B91098F73992708958DE391E0AA
:1001F0000E94EA0021E0892B09F420E0822F089573
:1002000080E090E0892B29F00E94F60081110C9487
:1002100000000895FC01A48DA80FB92FB11DA35AA9
:10022000BF4F2C91848D90E001968F739927848F16
:10023000A689B7892C93A089B1898C918370806439
:100240008C93938D848D981306C00288F389E02DDA
:1002500080818F7D80830895EF92FF920F931F938B
:10026000CF93DF93EC0181E0888F9B8D8C8D981369
:100270001AC0E889F989808185FF15C09FB7F89475
:10028000EE89FF896083E889F989808183708064C1
:1002900080839FBF81E090E0DF91CF911F910F910C
:1002A000FF90EF900895F62E0B8D10E00F5F1F4F1B
:1002B0000F731127E02E8C8D8E110CC00FB607FC2A
:1002C000FACFE889F989808185FFF5CFCE010E94B8
:1002D0000A01F1CFEB8DEC0FFD2FF11DE35AFF4F1B
:1002E000F0829FB7F8940B8FEA89FB898081806246
:1002F000CFCFCF93DF93EC01888D8823B9F0AA8903
:10030000BB89E889F9898C9185FD03C0808186FDD0
:100310000DC00FB607FCF7CF8C9185FFF2CF80811F
:1003200085FFEDCFCE010E940A01E9CFDF91CF9189
:10033000089590E0FC01E458FF4F2491FC01E25540
:10034000FF4F3491FC01E656FF4FE491EE23C9F0D4
:10035000222339F0233001F1A8F4213019F12230A1
:1003600029F1F0E0EE0FFF1FEE58FF4FA591B49179
:100370008FB7F894EC91611126C030953E233C93E1
:100380008FBF08952730A9F02830C9F0243049F7ED
:10039000809180008F7D03C0809180008F77809353
:1003A0008000DFCF84B58F7784BDDBCF84B58F7DB0
:1003B000FBCF8091B0008F778093B000D2CF809137
:1003C000B0008F7DF9CF3E2BDACFCF93DF9390E053
:1003D000FC01E255FF4F249186569F4FFC0184910A
:1003E0008823D1F090E0880F991FFC01E859FF4F56
:1003F000A591B491FC01EE58FF4FC591D4916111C4
:100400000EC09FB7F8948C91E22FE0958E238C93C9
:100410002881E223E8839FBFDF91CF9108958FB7B2
:10042000F894EC91E22BEC938FBFF6CF3FB7F894A2
:100430008091390190913A01A0913B01B0913C012A
:1004400026B5A89B05C02F3F19F00196A11DB11D2F
:100450003FBFBA2FA92F982F8827BC01CD01620F6B
:10046000711D811D911D42E0660F771F881F991F26
:100470004A95D1F70895FC0101900020E9F73197E2
:10048000AF01481B590BBC018DE391E00C948C002B
:100490001F920F920FB60F9211242F933F934F93F9
:1004A0005F936F937F938F939F93AF93BF93EF93DC
:1004B000FF938DE391E00E940A01FF91EF91BF91BC
:1004C000AF919F918F917F916F915F914F913F91EC
:1004D0002F910F900FBE0F901F9018951F920F92A3
:1004E0000FB60F9211242F938F939F93EF93FF9347
:1004F000E0914D01F0914E018081E0915301F09126
:10050000540182FD1BC09081809156018F5F8F73D3
:1005100020915701821741F0E0915601F0E0E35C31
:10052000FE4F958F80935601FF91EF919F918F9190
:100530002F910F900FBE0F901F9018958081F4CFD0
:100540001F920F920FB60F9211242F933F938F9308
:100550009F93AF93BF938091350190913601A09105
:100560003701B09138013091340123E0230F2D374A
:1005700058F50196A11DB11D2093340180933501DA
:1005800090933601A0933701B093380180913901DF
:1005900090913A01A0913B01B0913C010196A11DBF
:1005A000B11D8093390190933A01A0933B01B09320
:1005B0003C01BF91AF919F918F913F912F910F90EF
:1005C0000FBE0F901F90189526E8230F0296A11DCD
:1005D000B11DD2CFCF92DF92EF92FF920F931F9374
:1005E000E82FF92F05C0015011092109310961F1E6
:1005F000908196239417B9F305C001501109210980
:10060000310911F1908196239413F7CFC12CD12C8D
:10061000E12CF12C0AC08FEFC81AD80AE80AF80AB0
:100620000C151D052E053F0579F080818623841762
:1006300091F36C2D7D2D8E2D9F2D1F910F91FF908D
:10064000EF90DF90CF90089560E070E080E090E060
:100650001F910F91FF90EF90DF90CF900895CF936F
:10066000DF93CDB7DEB7A1970FB6F894DEBF0FBE0C
:10067000CDBF789484B5826084BD84B5816084BD2B
:1006800085B5826085BD85B5816085BD80916E0030
:10069000816080936E001092810080918100826061
:1006A000809381008091810081608093810080919E
:1006B00080008160809380008091B100846080938D
:1006C000B1008091B00081608093B00080917A0089
:1006D000846080937A0080917A00826080937A00AF
:1006E00080917A00816080937A0080917A0080689E
:1006F00080937A001092C10061E088E00E94E501D9
:1007000061E089E00E94E50161E08AE00E94E50184
:1007100061E08BE00E94E50161E087E00E94E50175
:1007200060E086E00E94E50160E088E00E949901B7
:1007300060E089E00E94990160E08AE00E949901EE
:1007400060E08BE00E949901E0914D01F0914E0133
:1007500082E08083E0914901F0914A011082E091AA
:100760004B01F0914C018FEC808310925501E09188
:100770005101F091520186E08083E0914F01F091A8
:100780005001808180618083E0914F01F0915001A0
:10079000808188608083E0914F01F09150018081D9
:1007A00080688083E0914F01F091500180818F7DBE
:1007B00080832AE0422E512C612C712C30E0232EB4
:1007C00030E0332E60E087E00E94990183E090E002
:1007D0000197F1F761E087E00E94990183E290E0E0
:1007E0000197F1F760E087E00E949901E4EBF0E007
:1007F0006491E0EAF0E08491E82FF0E0EE0FFF1F53
:10080000E057FF4F8591949100E412E42FE030E02F
:10081000462F0E94EA02611571058105910529F0B4
:100820006F5F7F4F8F4F9F4F9F702AE330E040E014
:1008300050E00E94080549015A0119A27E01F1E227
:10084000EF0EF11CCA01B901A30192010E94E60456
:10085000605DF70162937F01211531054105510566
:1008600089F7309719F0CF010E943B02F4E68F160A
:100870009104A104B1040CF04CC060E088E00E9437
:10088000990160E089E00E94990161E08AE00E949C
:10089000990161E08BE00E94990182E191E00E9460
:1008A0003B020E9416024B015C0184E6C82ED12C4B
:1008B000E12CF12C0E941602681979098A099B091A
:1008C000683E734081059105A8F3E1E0CE1AD10896
:1008D000E108F108F8EE8F0EF3E09F1EA11CB11C99
:1008E000C114D104E104F10429F780E391E00E94EE
:1008F0003B0280E391E00E943B022114310409F4A1
:1009000061CF0E94F600882309F45CCF0E940000AA
:1009100059CF25E6821A9108A108B10860E087EC5A
:1009200088169104A104B10490F48BE00E9499010F
:1009300060E088E00E94990160E08AE00E949901ED
:1009400061E089E00E9499018FE191E0A8CF8BE0FE
:100950000E94990160E08AE00E94990160E089E0CC
:100960000E94990161E088E00E94990189E291E08A
:1009700096CFEDE3F1E01382128288EE93E0A0E0DF
:10098000B0E084839583A683B78384E091E091836C
:10099000808385EC90E09587848784EC90E097874E
:1009A000868780EC90E0918B808B81EC90E0938B3C
:1009B000828B82EC90E0958B848B86EC90E0978B19
:1009C000868B118E128E138E148E0895A1E21A2E2C
:1009D000AA1BBB1BFD010DC0AA1FBB1FEE1FFF1FE3
:1009E000A217B307E407F50720F0A21BB30BE40B33
:1009F000F50B661F771F881F991F1A9469F760957A
:100A00007095809590959B01AC01BD01CF01089533
:100A1000052E97FB1EF400940E941F0557FD07D07A
:100A20000E94E60407FC03D04EF40C941F05509579
:100A30004095309521953F4F4F4F5F4F08959095CA
:100A40008095709561957F4F8F4F9F4F0895EE0F62
:0E0A5000FF1F0590F491E02D0994F894FFCF5C
:100A5E00000000002C018C00B9007901EA00C800EA
:100A6E00DC002020212144616E6765722121002067
:100A7E002043617574696F6E0020205361666500B6
:040A8E000D0A00004D
:00000001FF
